:100000003BC0A3C154C053C052C051C050C04FC028
:100010004EC04DC04CC04BC04AC049C048C047C08C
:1000200046C045C044C00902120001010080190900
:10003000040000000000000012011001FF00000891
:10004000C016DC050401010200010E035500530037
:1000500042006100730070001C0377007700770096
:100060002E00660069007300630068006C002E00BB
:10007000640065000403090411241FBECFE5D4E029
:10008000DEBFCDBF10E0A0E6B0E0ECE4F1E102C0DD
:1000900005900D92A236B107D9F720E0A2E6B0E0B4
:1000A00001C01D92AA3AB207E1F73ED84DC8A8CFC9
:1000B000CF93DF9360918800635067FD14C0209157
:1000C00085008CE090E0821B9109EC01C457DF4F62
:1000D000809184008D3209F451C08091620087FDC7
:1000E00091C0109288008091610084FF3AC0C09155
:1000F0006000CF3FB1F1C93008F468C088EF8C0FC1
:10010000809360009091780088E889278093780038
:10011000C8E08091620087FD9DC0209186003091EB
:10012000870086FF66C0A9E7B0E0F9018C2F9491A3
:100130009D9331968150D9F78FEF8C0F90E0019607
:10014000280F391F30938700209386006C2F89E792
:1001500090E0F7D084E08C0F8C3009F046C080939B
:10016000610094E186B3837031F49150D9F7109215
:10017000890010928300DF91CF910895683009F0D3
:10018000B0CF83EC809378008AE580936100109271
:1001900062008881807609F03FC08A8110928100D8
:1001A0009981911144C01092820021E830E082E0F0
:1001B00030938700209386009F81911104C09E8117
:1001C000981708F4892F809360008BCF10926000FD
:1001D0009091780088E8892780937800C11199CFA1
:1001E00060E089E790E0ADD084E09FEF90936000FD
:1001F000B6CFD901E9E7F0E08C2F9D919193815022
:10020000E1F79ACFCE01BFD68F3F01F1882309F4E1
:1002100068CF1092600065CFCE01ABD48F3F61F6FE
:10022000988197FD2CC090E890936200CCCF9530D8
:1002300001F1963031F1983081F1993091F181E0FE
:100240009A3009F080E021E830E0B2CF8EE180936F
:10025000610047CF6C2F89E790E016D6C82F893010
:1002600008F474CF8FEF809360008EE1809361007B
:1002700078CF8093890021E830E080E099CF8E81AB
:10028000D2CF9B819130D9F0923089F09330F9F040
:1002900080E090E4909362008FCF2BE830E081E023
:1002A00087CF80938B0021E830E080E081CF86E229
:1002B00090E0909387008093860082E1EACF88E304
:1002C00090E0909387008093860082E1E2CF8111D5
:1002D00008C084E790E0909387008093860084E0D4
:1002E000D8CF813051F0823099F68AE490E0909333
:1002F0008700809386008EE0CCCF88E590E09093D5
:100300008700809386008CE1C4CF85B7836085BF6A
:100310008BB780648BBF0895A82FB92F80E090E041
:1003200041E050EA609530E009C02D918227979511
:10033000879510F084279527305EC8F36F5FA8F388
:100340000895EADF8D939D930895CF93CFB7CF9310
:10035000C395B09BE9F7B09B09C0B09B07C0B09BA9
:1003600005C0B09B03C0B09B01C0A1C0DF93C0918A
:100370008500DD27C457DF4FB09B02C0DF91EBCF74
:100380002F930F931F9306B32FEF00FB20F94F938A
:100390003F9316B34FEF012700FB21F93BE031C03B
:1003A0004E7F012F16B3216028C0102F4D7F226091
:1003B000000006B329C04B7F2460012F000016B354
:1003C0002BC016B3477F28602AC04F7E06B320613A
:1003D0002CC04F7D16B320622FC04F7B06B3206424
:1003E00032C0422706B349934FEF0000102710FB9D
:1003F00020F916B31370C9F1297F91F2012700FB90
:1004000021F906B3237F89F2315058F1102710FBF0
:1004100022F916B3277E79F2012700FB23F92F7CFE
:1004200081F206B3102710FB24F92F7971F200C076
:1004300016B3012700FB25F92F7359F200C006B34C
:10044000102710FB26F9223040F200C016B3012716
:1004500000FB27F9243028F64F77206816B30000F8
:10046000F9CF10E41ABF002717C03B503195C31BCA
:10047000D04010E41ABF0881033CE9F00B34D9F0F6
:10048000209183001981110F1213EDCF093641F12C
:100490000D3211F0013E39F700938A003F914F91E0
:1004A0001F910F912F91DF91CAB7C6FD51CFCF9108
:1004B000CFBFCF91189520918A00222379F3109114
:1004C0008800112311F5343012F130938800209305
:1004D0008400109185003BE0311B3093850017C0EC
:1004E0000091880001308CF40AE53091610034FD00
:1004F00010C000936100C8E7D0E00FC02795A8F4B2
:100500005150A9F4220F0000F9CF4AE503C042ED93
:1005100001C0432FC4E1D0E032E017B31360C09AAA
:1005200017BB08B320E413E05F93012756E008BB34
:10053000279520F4515021F4220FF9CF012756E0DE
:1005400000003B5A08BBD0F2279528F4515029F4FB
:10055000220F0000F9CF012756E0279508BB20F4B1
:10056000515021F4220FF9CF012756E0299133236E
:1005700008BB21F60C7F10918900110FC651D040A5
:1005800008BB11F01093830010E41ABF016017B389
:100590001C7F402F4C7F5F9100C000C008BB17BB81
:1005A00048BB7CCF582F48E080E057FD18C0C39867
:1005B000550F880FB4998F5FC59A32B72091A70065
:1005C00092B7931B9217E0F3C59832B72091A7001A
:1005D00092B7931B9217E0F3415039F70895C39AED
:1005E000E7CF8FB9779BFECF8FB10895DC01CB01A8
:1005F00021E1B695A795979587952A95D1F72091F2
:10060000A6002817D9F08093A600E091A300F091EE
:10061000A4008DE40995E091A300F091A40080E08E
:100620000995E091A300F091A4008091A60009959E
:10063000E091A300F091A40080E0099408958091D6
:10064000A5008DB98091A2008EB908958823A1F0EC
:100650008830D0F522ED32E03093A4002093A3003F
:100660008430F1F008F18630C1F030F18730A1F428
:1006700083E08093A700089581EF92E09093A40017
:100680008093A30081E08093A70082E58093A5007A
:1006900081E08093A200089580EC8093A7000895E4
:1006A00088E18093A7000895823051F08330A1F74C
:1006B00080E38093A70008958CE08093A7000895BD
:1006C00080E68093A700089521EF32E03093A400E4
:1006D0002093A3001092A20091E09093A70089308C
:1006E00059F070F08B3021F08C3079F69093A200A5
:1006F00081E58093A500089582E58093A500089583
:10070000883019F683E58093A500089522B790916B
:10071000A70082B7821B8917E0F3089587B38C6224
:1007200087BBC298C59822B79091A70082B7821B59
:100730008917E0F3C29A22B79091A70082B7821B73
:100740008917E0F3C2988091A3009091A400815F83
:10075000924019F01092A60008958091A5008DB9DD
:100760008091A2008EB91092A600089587B3837D70
:1007700087BB88B3837D88BB1DB80895CF93DF9373
:10078000C0E2E091A300F091A4008CEA0995E09109
:10079000A300F091A40083E50995E091A300F091F6
:1007A000A40080E00995D82FE091A300F091A40067
:1007B00080E00995D33561F11DB822B79091A7006B
:1007C00082B7821B8917E0F3C29A22B79091A700E3
:1007D00082B7821B8917E0F3C29822B79091A700D5
:1007E00082B7821B8917E0F38091A3009091A40047
:1007F000815F924031F0C15021F681E0DF91CF91CD
:1008000008958091A5008DB98091A2008EB9F3CF93
:1008100080E0DF91CF910895CF92DF92EF92FF9227
:100820006B017C01E3DE8C2D8170880F880F880FAF
:10083000E091A300F091A40080620995D701C60160
:1008400029E0B695A795979587952A95D1F7E091D8
:10085000A300F091A4000995D701C601B695A7950C
:1008600097958795E091A300F091A4000995E091F8
:10087000A300F091A40080E0FF90EF90DF90CF9074
:100880000994CF92DF92EF92FF920F931F93CF9331
:10089000DF931F92CDB7DEB76B017C01142F298344
:1008A000A5DE8C2D8170880F880F880FE091A30042
:1008B000F091A40080640995D701C60129E0B6959E
:1008C000A795979587952A95D1F7E091A300F09188
:1008D000A4000995D701C601B695A7959795879568
:1008E000E091A300F091A4000995E091A300F0919C
:1008F000A400812F099529812223A1F01F3781F0BF
:1009000012B70EE1C701B60187DF8F3759F482B7FE
:10091000811B8D33B8F312B70150A1F781E003C0FA
:100920008FE0B2D080E00F90DF91CF911F910F91B7
:10093000FF90EF90DF90CF900895CF92DF92EF92EB
:10094000FF920F931F93CF93DF931F92CDB7DEB724
:100950006B017C0149834ADEE091A300F091A40081
:100960008CE40995D701C60129E0B695A79597951E
:1009700087952A95D1F7E091A300F091A4000995FD
:10098000D701C601B695A79597958795E091A300E5
:10099000F091A4000995E091A300F091A40080E0FB
:1009A000099549814F3FD9F012B70EE1C701B60151
:1009B00033DF8F3F91F482B7811B8D33B8F312B7C9
:1009C0000150A1F781E00F90DF91CF911F910F911E
:1009D000FF90EF90DF90CF90089580E0F4CF8FE00C
:1009E00053D080E0F0CF1F93CF93DF931F92CDB70A
:1009F000DEB7182FE091A300F091A40080EA99835C
:100A00000995E091A300F091A4009981892F09959F
:100A1000E091A300F091A400812F0995E091A3003B
:100A2000F091A40080E00F90DF91CF911F91099485
:100A30001F93CF93DF9300D0CDB7DEB7182FE0918F
:100A4000A300F091A40080EC6A8399830995E0915A
:100A5000A300F091A4009981892F0995E091A3004A
:100A6000F091A400812F0995E091A300F091A400DA
:100A70006A81862F09958EE107D080E00F900F9054
:100A8000DF91CF911F910895882349F030E022B77C
:100A900092B7921B9C33E0F33F5F8313F8CF089526
:100AA000BD9ABB98C39A50E217D05A95E9F70895BA
:100AB000AC0188E605D0842F03D089E601D0852FCC
:100AC0000FD028E030E0382780FB869506D02A95A5
:100AD000D1F730FB02D000D06894BB98C39A16F0CF
:100AE000C398BB9AE091A800F091A9003197F0F764
:100AF000C59AE6B3E3FBE091A800F091A900319715
:100B0000F0F7C598089520ECE7DF46F42A95E1F761
:100B100080E02AE1E5DF2A95E9F7DECF28E030E042
:100B2000DBDF869587F938272A95D1F7D5DF27F9B6
:100B3000322772F3D1DFD0CFDB01742FB9DF84E22B
:100B4000BFDFE1DF8D937A95D1F70895DB01742F34
:100B5000AFDF83EFB5DF8DE1B3DF84E6B1DF8D91E9
:100B6000AFDF82E7ADDFCFDF8078D9F77A9589F7FD
:100B70000895CF93DF93EC018981813089F1823030
:100B800009F4A0C0833009F45BC08430A1F1873040
:100B900009F47BC0853009F4EEC0863009F496C0B4
:100BA000883009F4C5C0893009F4EAC08A3009F4F4
:100BB00011C18B3009F439C18C3009F447C18D3033
:100BC00009F459C18E3009F45BC18F3009F4E9C0D2
:100BD000803109F406C18F3709F41CC180E027C0B9
:100BE0009A9B50C080916E0031DD10926D00A998E3
:100BF00095DD80E01CC080916D0081110EC08A815E
:100C00009B81092E000CAA0BBB0B8093690090936B
:100C10006A00A0936B00B0936C008E819F819093CB
:100C200068008093670082E080936F008FEF20E779
:100C300030E03093870020938600DF91CF910895B4
:100C4000E091A300F091A4008A810995809370003F
:100C5000E091A300F091A4008B810995809371002D
:100C6000E091A300F091A4008C810995809372001B
:100C7000E091A300F091A4008D8109958093730009
:100C800084E0D5CF85E0E2DCB0CF80916D008111AA
:100C90000EC08A819B81092E000CAA0BBB0B80938E
:100CA000690090936A00A0936B00B0936C008E81F2
:100CB0009F81909368008093670083E080936F002A
:100CC0008FEFB5CF53DDA99A80E0B1CF80916D0051
:100CD00081110EC08A819B81092E000CAA0BBB0BCF
:100CE0008093690090936A00A0936B00B0936C00AE
:100CF0003C812D81822F8F7080936400822F807FB2
:100D000040E1849FC0011124830F911D90936600E0
:100D10008093650020FD809363008E819F81909376
:100D200068008093670081E080936F008FEF7FCF32
:100D300080916D0081110EC08A819B81092E000C6B
:100D4000AA0BBB0B8093690090936A00A0936B0081
:100D5000B0936C00109266001092650010926400CF
:100D60008E819F81909368008093670084E08093D8
:100D70006F008FEF5CCF02DD8093700081E057CF72
:100D800081E080936D008A819B81AC81BD818093DD
:100D9000690090936A00A0936B00B0936C0080E0B0
:100DA00046CF8A819B81092E000CAA0BBB0B809336
:100DB000690090936A00A0936B00B0936C008E81E1
:100DC0009F81909368008093670085E080936F0017
:100DD0008FEF2DCF8A8180936E001092700081E09A
:100DE00026CF8A819B81092E000CAA0BBB0B809316
:100DF000690090936A00A0936B00B0936C008E81A1
:100E00009F81909368008093670086E080936F00D5
:100E10008FEF0DCF81E080937000109271001092DF
:100E200072001092730084E002CF8A819B819093BC
:100E3000A9008093A800C29ABA9A83E025DEC298DE
:100E4000A99880E121DE2CDE80E0F1CE80EC38DE56
:100E500080E036DE8AE018DEC29A85E015DEC298B0
:100E600085E012DE87B3837D87BB88B3837D88BB33
:100E7000A99A80E0DCCE47DE8093700081E0D7CE77
:100E80008A811EDE80E0D3CEFF920F931F93CF9313
:100E9000DF93582F792FF62E20916F003EEF320FFF
:100EA000323050F0253009F451C08FEFDF91CF91EF
:100EB0001F910F91FF9008956623C1F18091690001
:100EC00090916A00A0916B00B0916C00052F172FD4
:100ED0003FEF360FE801C30FD11D1DC084DDF801BF
:100EE00080838091690090916A00A0916B00B0911D
:100EF0006C000196A11DB11D8093690090936A005A
:100F0000A0936B00B0936C000C171D0761F020914B
:100F10006F000F5F1F4F223009F7BC01CD017CDC51
:100F2000F8018083DECFF7E0FF1548F010926F00E4
:100F30008F2DDF91CF911F910F91FF9008958F2DED
:100F4000DF91CF911F910F91FF900895462F682F49
:100F50008091690090916A00EFDD80916900909125
:100F60006A00A0916B00B0916C008F0D911DA11DC6
:100F7000B11D8093690090936A00A0936B00B093B9
:100F80006C008F2D93CFFF920F931F93CF93DF931E
:100F9000382F792F162F20916F00213061F02430E7
:100FA00051F0263009F493C08FEFDF91CF911F915C
:100FB0000F91FF900895112309F4B4C08091690046
:100FC00090916A00A0916B00B0916C00C32FD72F55
:100FD0001150AE01410F511D8A01F12C4DC02091DD
:100FE000650030916600232B09F04FC021E0488155
:100FF000BC01CD0146DC2091670030916800215092
:1010000031093093680020936700232BE1F410929C
:101010006F008091640081FF35C08091630090E093
:1010200020916500309166008217930759F1609115
:10103000690070916A0080916B0090916C0048810A
:101040007CDCFF24F3948091690090916A00A09168
:101050006B00B0916C000196A11DB11D80936900D9
:1010600090936A00A0936B00B0936C00C017D107F7
:1010700039F120916F002196213009F4B0CF6881B9
:10108000D7DCB9CFFF24F394DECF20E04881BC0148
:10109000CD01F7DB80916300815080936300811163
:1010A000AACF6091690070916A0080916B00909165
:1010B0006C00488142DC80916500809363009BCF87
:1010C0008F2DDF91CF911F910F91FF900895462FA3
:1010D000682F8091690090916A0038DD80916900E5
:1010E00090916A00A0916B00B0916C00810F911DEE
:1010F000A11DB11D8093690090936A00A0936B00BD
:10110000B0936C008091670090916800811B9109F9
:101110009093680080936700892B21F410926F00F0
:1011200081E043CF80E041CF12BA18BA11BA8FEFF5
:1011300087BB17BA83E084BB9EEF95BB83BFE5D81E
:0C1140007894B6D7B5D7FDCFF894FFCF58
:02114C00FF5A48
:00000001FF
